:100000000C9427010C9458010C9458010C9458013D
:100010000C9458010C9458010C9458010C945801FC
:100020000C9458010C9458010C9458010C945801EC
:100030000C9458010C9458010C9458010C945801DC
:100040000C9458010C94D1040C9458010C94580150
:100050000C9458010C9458010C9458010C94FD0315
:100060000C9458010C9458010C9458010C945801AC
:100070000C9458010C9458010C9458010C9458019C
:100080000C94A3040C9458010C9458010C9458013E
:100090000C9458010C9458010C9458010C9458017C
:1000A0000C9458010C9458010C9475040C9458014C
:1000B0000C9458010C9458010C9458010C9447046A
:1000C0000C9458010C9458010C9458010C9458014C
:1000D0000C9458010C9458010C9458010C9458013C
:1000E0000C9458010C948A010C94A5010C94D6012F
:1000F0000C94B0010C94A9010C94E0010C94AE0690
:100100000C94C4010C94C0010C94DC010C94A1016A
:100110000C94AD010C94B6010C948F010C94BA01AF
:100120000C94C8010C94D2010C94CE010000200064
:100130002300260029002C002F00320000010000BF
:1001400003010601090100002100240027002A0004
:100150002D003000330001010000040107010A01F5
:1001600000002200250028002B002E003100340062
:1001700002010000050108010B0105050505070541
:1001800008080808020202020A0A08080404040413
:10019000010101010101010103030303030303033F
:1001A000040707070C0C0C0C0C0C0C0C02020202CE
:1001B00006060606060606060B0B0B0B0B0B0B0BB7
:1001C0000102102020080810204010204080020169
:1001D000020108040201010204081020408080404E
:1001E000201008040201800402018040201008044D
:1001F00002010804020101020408102040800102EB
:1002000004081020408000000A0B02090C0D0E08A3
:1002100007030401000000000000000000000000CF
:1002200000000000000000000000000000000000CE
:10023000000012111000000000000000000000008B
:10024000000000000000000000000000AE061124C5
:100250001FBECFEFD1E2DEBFCDBF00E00CBF12E08A
:10026000A0E0B2E0EAE1F1E100E00BBF02C00790DC
:100270000D92A030B107D9F722E0A0E0B2E001C0B2
:100280001D92A83AB207E1F711E0C7E2D1E000E021
:1002900006C021970109802FFE010E948308C63203
:1002A000D10780E00807A9F70E9444050C948B0849
:1002B0000C940000282F30E0F901EA5FFD4F949183
:1002C000F901E054FE4F449126583E4FF901249124
:1002D000222309F435C0992311F191509231F8F499
:1002E000E92FF0E08827E858FE4F8F4F0C948308E1
:1002F000A901AD018A01A101A5018F01B001B601DB
:10030000BA01C001C401C801CE01D2018F01D601DA
:10031000DC01E001809180008F7780938000E22FE4
:10032000F0E0EE0FFF1FE05AFE4FA591B4918FB79A
:10033000F894EC91611148C040954E234C938FBFC7
:100340000895809180008F7DE8CF80918000877F25
:10035000E4CF84B58F7784BDE2CF84B58F7DFBCFAA
:100360008091B0008F778093B000D9CF8091B0009A
:100370008F7DF9CF809190008F7780939000CFCFC1
:10038000809190008F7DF9CF80919000877FF5CF8D
:100390008091A0008F778093A000C1CF8091A000B2
:1003A0008F7DF9CF8091A000877FF5CF80912001CC
:1003B0008F7780932001B3CF809120018F7DF9CF7B
:1003C00080912001877FF5CF4E2BB8CFCF93DF935D
:1003D00090E0FC01E054FE4F249186589E4FFC01B2
:1003E00084918823D1F090E0880F991FFC01EA5B8B
:1003F000FE4FA591B491FC01E05AFE4FC591D491F6
:1004000061110EC09FB7F8948C91E22FE0958E2376
:100410008C932881E223E8839FBFDF91CF910895D9
:100420008FB7F894EC91E22BEC938FBFF6CF3FB7E8
:10043000F89480910A0290910B02A0910C02B09165
:100440000D0226B5A89B05C02F3F19F00196A11DEE
:10045000B11D3FBFBA2FA92F982F8827BC01CD010E
:10046000620F711D811D911D42E0660F771F881F6D
:10047000991F4A95D1F70895CF92DF92EF92FF929C
:10048000CF93DF93EC01603282E07807CCF5653BD7
:10049000710514F064EB70E0898128E830E0281BD6
:1004A000310987FD3395220F331F220F331F690156
:1004B000330FEE08FF088A8128E532E0281B310956
:1004C00087FD3395220F331F220F331F032E000C9D
:1004D000440B550B2C193D094E095F09DB0177FFD1
:1004E00002C0B0E0A0E00E940D0724EB30E040E045
:1004F00050E00E94E306C20ED31EE41EF51EB601B4
:10050000E881E03370F5298188E890E0821B910949
:1005100027FD9395880F991F880F991F68177907F2
:100520007CF02A8188E592E0821B910927FD939552
:10053000880F991F880F991F681779070CF4CB0152
:100540000297880F991F4FB7F8942E2F30E0F901CA
:10055000EE0FFF1FE20FF31FE25FFD4F92838183D7
:100560004FBFDF91CF91FF90EF90DF90CF90089534
:100570008130910581F41092800082E080938100A7
:100580001092850010928400B19A80916F00826071
:1005900080936F0008958230910569F41092900065
:1005A00082E080939100109295001092940088BB95
:1005B0008093710008958330910569F41092A00032
:1005C00082E08093A1001092A5001092A40089BB44
:1005D000809372000895892B61F41092200182E0CB
:1005E0008093210110922501109224018ABB8093EF
:1005F00073000895AF92BF92CF92DF92EF92FF9275
:100600000F931F93CF93DF936B017A01EC01CF5FC0
:10061000DD4F28813CE0389F8001399F100D112467
:10062000A0900002B12C27FF1FC0FB011182108295
:1006300088818F5F888388819801280F311D87FD0D
:100640003A95F6012A153B051CF488818C30C4F1DB
:1006500080819181049680349C4908F473C0F6012E
:1006600080819181049670C088819801280F311D86
:1006700087FD3A952A153B05DCF68881A801480FCD
:10068000511D87FD5A95FA01EE0FFF1FE40FF51F6C
:10069000E25FFD4F808186FFCBCF8881F801E80FB4
:1006A000F11D87FDFA95CF01EE0FFF1FE80FF91F2F
:1006B000E25FFD4F808160E08F730E945A01B8CFE6
:1006C000808191812881A801420F511D27FD5A95F3
:1006D0009A01FA01EE0FFF1FE20FF31FE25FFD4FD9
:1006E00021813281820F931FF7019183808388815A
:1006F0009801280F311D87FD3A95F901EE0FFF1F74
:10070000E20FF31FE25FFD4F808186FF22C08881E8
:10071000080F111D87FD1A95F801EE0FFF1FE00F5E
:10072000F11FE25FFD4F808161E08F73DF91CF9118
:100730001F910F91FF90EF90DF90CF90BF90AF90FF
:100740000C945A0180E49CE9F701918380838FEF38
:100750008883DF91CF911F910F91FF90EF90DF90F1
:10076000CF90BF90AF9008950F931F93CF93DF93D7
:10077000C82FD62F172F61E00E94E60160E08C2F72
:100780000E945A0183E090E00197F1F761E08C2F1D
:100790000E945A0183E290E00197F1F760E08C2F0C
:1007A0000E945A0160E08D2F0E94E6018D2F912F4B
:1007B000FC01E054FE4F6491FC01E658FE4FE491C9
:1007C000F0E0EE0FFF1FE45DFE4F8591949100E491
:1007D00012E42FE030E0462F0E94FF0461157105FE
:1007E0008105910529F06F5F7F4F8F4F9F4F9F705D
:1007F000DF91CF911F910F9108951F920F920FB625
:100800000F9211242F933F938F939F93AF93BF9396
:100810008091060290910702A0910802B09109020E
:100820003091050223E0230F2D3758F50196A11DC5
:10083000B11D209305028093060290930702A093B6
:100840000802B093090280910A0290910B02A091D4
:100850000C02B0910D020196A11DB11D80930A02F8
:1008600090930B02A0930C02B0930D02BF91AF9135
:100870009F918F913F912F910F900FBE0F901F90DE
:10088000189526E8230F0296A11DB11DD2CF1F9205
:100890000F920FB60F9211240BB60F922F933F9326
:1008A0004F935F936F937F938F939F93AF93BF9378
:1008B000EF93FF9348E251E064E271E090E080E062
:1008C0000E94FA02FF91EF91BF91AF919F918F919A
:1008D0007F916F915F914F913F912F910F900BBE40
:1008E0000F900FBE0F901F9018951F920F920FB68A
:1008F0000F9211240BB60F922F933F934F935F9358
:100900006F937F938F939F93AF93BF93EF93FF93D7
:1009100048EA50E064EA70E083E090E00E94FA0266
:10092000FF91EF91BF91AF919F918F917F916F91C7
:100930005F914F913F912F910F900BBE0F900FBE83
:100940000F901F9018951F920F920FB60F921124BF
:100950000BB60F922F933F934F935F936F937F93B9
:100960008F939F93AF93BF93EF93FF9348E950E02A
:1009700064E970E082E090E00E94FA02FF91EF915A
:10098000BF91AF919F918F917F916F915F914F91A7
:100990003F912F910F900BBE0F900FBE0F901F90A5
:1009A00018951F920F920FB60F9211240BB60F924B
:1009B0002F933F934F935F936F937F938F939F9367
:1009C000AF93BF93EF93FF9348E850E064E870E083
:1009D00081E090E00E94FA02FF91EF91BF91AF9108
:1009E0009F918F917F916F915F914F913F912F9147
:1009F0000F900BBE0F900FBE0F901F901895CF92C7
:100A0000DF92EF92FF920F931F93E82FF92F05C00B
:100A1000015011092109310961F190819623941740
:100A2000B9F305C0015011092109310911F1908173
:100A300096239413F7CFC12CD12CE12CF12C0AC0B2
:100A40008FEFC81AD80AE80AF80A0C151D052E05FA
:100A50003F0579F080818623841791F36C2D7D2DDD
:100A60008E2D9F2D1F910F91FF90EF90DF90CF90D3
:100A7000089560E070E080E090E01F910F91FF909A
:100A8000EF90DF90CF900895789484B5826084BD14
:100A900084B5816084BD85B5826085BD85B5816082
:100AA00085BD80916E00816080936E001092810000
:100AB00080918100826080938100809181008160BB
:100AC000809381008091800081608093800080917C
:100AD000B10084608093B1008091B0008160809308
:100AE000B00080919100826080939100809191008C
:100AF000816080939100809190008160809390004C
:100B00008091A10082608093A1008091A10081600A
:100B10008093A1008091A00081608093A0008091CB
:100B20002101826080932101809121018160809365
:100B300021018091200181608093200180917A00C1
:100B4000846080937A0080917A00826080937A003A
:100B500080917A00816080937A0080917A00806829
:100B600080937A001092C10080919E02803308F039
:100B700043C061E08BE10E94E60180919E02282F34
:100B800030E0F901EE0FFF1FE20FF31FE25FFD4FB0
:100B90009081907C9B61908310929F021092A002A2
:100BA0002CE0622F0E94770890E0829FB001112410
:100BB00030E020E0AB01420F531FFA01EE0FFF1FA0
:100BC000E40FF51FE25FFD4F408146FD07C02F5F38
:100BD0003F4F2C30310571F70E94B802E0919E0220
:100BE0008E2F90E0FC01EE0FFF1FE80FF91FE25F70
:100BF000FD4F8081806480838091A102803308F062
:100C000043C061E086E30E94E6018091A102282FA3
:100C100030E0F901EE0FFF1FE20FF31FE25FFD4F1F
:100C20009081907C966390831092A2021092A3020E
:100C30002CE0622F0E94770890E0829FB00111247F
:100C400030E020E0AB01420F531FFA01EE0FFF1F0F
:100C5000E40FF51FE25FFD4F408146FD07C02F5FA7
:100C60003F4F2C30310571F70E94B802E091A1028C
:100C70008E2F90E0FC01EE0FFF1FE80FF91FE25FDF
:100C8000FD4F808180648083C6E9D0E000E010E001
:100C900066E070E086E090E00E94B4030E947E0768
:100CA0002EEE35E24DE85CE30E94E2070E94460723
:100CB0007093A7026093A6026DE170E08DE190E071
:100CC0000E94B4030E947E072EEE35E24DE85CE3FD
:100CD0000E94E2070E9446076B017093A502609391
:100CE000A4028091A6029091A702BE01681B790B15
:100CF0008EE992E00E943C02BE016C197D0981EAF6
:100D000092E00E943C020E9417024B015C0184E6C3
:100D1000C82ED12CE12CF12C0E94170268197909F8
:100D20008A099B09683E734081059105A8F321E07B
:100D3000C21AD108E108F10888EE880E83E0981EF7
:100D4000A11CB11CC114D104E104F10429F701155F
:100D5000110509F49DCF0E9400009ACF80910002F6
:100D6000803348F591E0980F9093000280939E02A3
:100D700090E0FC01EE0FFF1FE80FF91FE25FFD4F4F
:100D800088EB9BE092838183809100028033B8F4EA
:100D900091E0980F909300028093A10290E0FC01F3
:100DA000EE0FFF1FE80FF91FE25FFD4F88EB9BE09E
:100DB0009283818308958FEF80939E02E5CF8FEF1A
:100DC0008093A1020895052E97FB1EF400940E94C3
:100DD000FA0657FD07D00E94150707FC03D04EF412
:100DE0000C94FA0650954095309521953F4F4F4F02
:100DF0005F4F089590958095709561957F4F8F4FC7
:100E00009F4F08950E943707A59F900DB49F900DA6
:100E1000A49F800D911D11240895B7FF0C94020723
:100E20000E940207821B930B0895A1E21A2EAA1BAF
:100E3000BB1BFD010DC0AA1FBB1FEE1FFF1FA2178A
:100E4000B307E407F50720F0A21BB30BE40BF50B87
:100E5000661F771F881F991F1A9469F76095709510
:100E6000809590959B01AC01BD01CF010895A29F93
:100E7000B001B39FC001A39F700D811D1124911D6E
:100E8000B29F700D811D1124911D08950E944D0780
:100E90006894B1110C94DC0708950E94C10788F092
:100EA0009F5798F0B92F9927B751B0F0E1F0660F2E
:100EB000771F881F991F1AF0BA95C9F714C0B1306F
:100EC00091F00E94DB07B1E008950C94DB07672FD7
:100ED000782F8827B85F39F0B93FCCF3869577959E
:100EE0006795B395D9F73EF4909580957095619587
:100EF0007F4F8F4F9F4F0895E89409C097FB3EF4B2
:100F000090958095709561957F4F8F4F9F4F992356
:100F1000A9F0F92F96E9BB279395F69587957795D4
:100F20006795B795F111F8CFFAF4BB0F11F460FF94
:100F30001BC06F5F7F4F8F4F9F4F16C0882311F0EC
:100F400096E911C0772321F09EE8872F762F05C000
:100F5000662371F096E8862F70E060E02AF09A959B
:100F6000660F771F881FDAF7880F9695879597F990
:100F7000089557FD9058440F551F59F05F3F71F089
:100F80004795880F97FB991F61F09F3F79F08795F0
:100F90000895121613061406551FF2CF4695F1DF79
:100FA00008C0161617061806991FF1CF8695710509
:100FB000610508940895E894BB2766277727CB013D
:100FC00097F908950E94F5070C9466080E94580846
:100FD00038F00E945F0820F0952311F00C944F0820
:100FE0000C94550811240C94DC070E94B90770F387
:100FF000959FC1F3950F50E0551F629FF001729FBE
:10100000BB27F00DB11D639FAA27F00DB11DAA1FCC
:10101000649F6627B00DA11D661F829F2227B00D19
:10102000A11D621F739FB00DA11D621F839FA00DA4
:10103000611D221F749F3327A00D611D231F849FF4
:10104000600D211D822F762F6A2F11249F5750404B
:101050009AF0F1F088234AF0EE0FFF1FBB1F661FC6
:10106000771F881F91505040A9F79E3F510580F08F
:101070000C944F080C94DC075F3FE4F3983ED4F3E4
:10108000869577956795B795F795E7959F5FC1F733
:10109000FE2B880F911D9695879597F9089597F9DE
:1010A0009F6780E870E060E008959FEF80EC08950E
:1010B00000240A9416161706180609060895002437
:1010C0000A9412161306140605060895092E0394B1
:1010D000000C11F4882352F0BB0F40F4BF2B11F425
:1010E00060FF04C06F5F7F4F8F4F9F4F0895991B24
:1010F00079E004C0991F961708F0961B881F7A950F
:10110000C9F780950895EE0FFF1F881F8BBF0790CA
:0A111000F691E02D1994F894FFCF3A
:00000001FF
