:100000000C942E010C945F010C945F010C945F0121
:100010000C945F010C945F010C945F010C945F01E0
:100020000C945F010C945F010C945F010C945F01D0
:100030000C945F010C945F010C945F010C945F01C0
:100040000C945F010C945F010C945F010C945F01B0
:100050000C945F010C945F010C945F010C94F60406
:100060000C945F010C94C0040C9496040C945F01F2
:100070000C945F010C945F010C945F010C945F0180
:100080000C945F010C945F010C945F010C945F0170
:100090000C945F010C945F010C945F010C945F0160
:1000A0000C945F010C945F010C945F010C945F0150
:1000B0000C945F010C945F010C945F010C945F0140
:1000C0000C945F010C945F010C945F010C945F0130
:1000D0000C945F010C945F010C945F010C945F0120
:1000E0000C945F010C9403030C941E030C940703FF
:1000F0000C941A030C9441030C942C030C94DE0111
:100100000C94AD010C9436030C943A030C94400308
:100110000C9463020C94E4020C94FB020C944005D2
:100120000C9416020C9430030C9422030C9480015E
:100130000C9490040C94E9020C940A030C94FF02B2
:100140000C94D0010C9414030C9410030C94280309
:100150000C94BC0100000A0B02090C0D0E080703E9
:10016000040100000000000000000000000000008A
:10017000000000000000000000000000000000007F
:10018000121110000000000000000000000000003C
:100190000000000000000000000000002200250018
:1001A00028002B002E003100340002010000050160
:1001B00008010B0100002100240027002A002D0067
:1001C0003000330001010000040107010A010505A8
:1001D0000505070508080808020202020A0A0808BD
:1001E00004040404010101010101010103030303EB
:1001F00003030303040707070C0C0C0C0C0C0C0C7A
:100200000202020206060606060606060B0B0B0B8A
:100210000B0B0B0B010210202008081020401020AF
:1002200040800201020108040201010204081020BA
:1002300040808040201008040201800402018040B8
:100240002010080402010804020101020408102021
:1002500040800102040810204080400511241FBE88
:10026000CFEFD1E2DEBFCDBF00E00CBF12E0A0E0D7
:10027000B2E0E2EAFCE000E00BBF02C007900D92A2
:10028000A833B107D9F722E0A8E3B2E001C01D927C
:10029000A63FB207E1F711E0CEE2D1E000E006C0F0
:1002A00021970109802FFE010E944706CD32D10718
:1002B00080E00807A9F70E948B050C944F060C9468
:1002C000000090E0FC01EC5EFD4F249182539E4FB4
:1002D000FC018491882399F090E0880F991FFC011C
:1002E000EC54FE4FA591B491FC01E656FE4F85916A
:1002F00094918FB7F894EC91E22BEC938FBF089513
:10030000AF92BF92CF92DF92EF92FF920F931F9323
:10031000CF93DF936C017B018B01040F151FEB0161
:100320005E01AE18BF08C017D10759F06991D60118
:10033000ED91FC910190F081E02DC6011995892B7A
:1003400079F7C501DF91CF911F910F91FF90EF9049
:10035000DF90CF90BF90AF900895FC01538D448DF6
:10036000252F30E0842F90E0821B930B541710F060
:10037000CF96089501970895FC01918D828D98176D
:1003800061F0A28DAE0FBF2FB11D5D968C91928D45
:100390009F5F9F73928F90E008958FEF9FEF089576
:1003A000FC01918D828D981731F0828DE80FF11D3F
:1003B000858D90E008958FEF9FEF0895FC01918D5A
:1003C000228D892F90E0805C9F4F821B91098F7353
:1003D0009927089581E492E00E94DE0121E0892BB3
:1003E00009F420E0822F0895FC01A48DA80FB92FF5
:1003F000B11DA35ABF4F2C91848D90E001968F734D
:100400009927848FA689B7892C93A089B1898C916B
:10041000837080648C93938D848D981306C00288BA
:10042000F389E02D80818F7D80830895EF92FF9284
:100430000F931F93CF93DF93EC0181E0888F9B8D07
:100440008C8D98131AC0E889F989808185FF15C0C1
:100450009FB7F894EE89FF896083E889F9898081E4
:100460008370806480839FBF81E090E0DF91CF91B3
:100470001F910F91FF90EF900895F62E0B8D10E0D5
:100480000F5F1F4F0F731127E02E8C8D8E110CC044
:100490000FB607FCFACFE889F989808185FFF5CF8F
:1004A000CE010E94F401F1CFEB8DEC0FFD2FF11D79
:1004B000E35AFF4FF0829FB7F8940B8FEA89FB89CC
:1004C00080818062CFCFCF93DF93EC01888D88232A
:1004D000B9F0AA89BB89E889F9898C9185FD03C0A7
:1004E000808186FD0DC00FB607FCF7CF8C9185FF8C
:1004F000F2CF808185FFEDCFCE010E94F401E9CFDC
:10050000DF91CF91089580E090E0892B29F00E943F
:10051000EA0181110E94000080E090E0892B49F0FF
:1005200080E090E0892B29F00E94000081110E9458
:10053000000080E090E0892B49F080E090E0892B7A
:1005400029F00E94000081110E94000080E090E0EC
:10055000892B49F080E090E0892B29F00E9400006F
:1005600081110C9400000895282F30E0F901EC5A15
:10057000FE4F9491F901EC5EFD4F449122533E4FA2
:10058000F9012491222309F435C0992311F19150E6
:100590009231F8F4E92FF0E08827EE52FD4F8F4FAB
:1005A0000C94470603030703E402FB02FF02E9027F
:1005B0000A03100314031A031E03220328032C0347
:1005C000E902300336033A03809180008F778093ED
:1005D0008000E22FF0E0EE0FFF1FE656FE4FA591E0
:1005E000B4918FB7F894EC91611148C040954E23B7
:1005F0004C938FBF0895809180008F7DE8CF8091CC
:100600008000877FE4CF84B58F7784BDE2CF84B547
:100610008F7DFBCF8091B0008F778093B000D9CFD2
:100620008091B0008F7DF9CF809190008F7780937B
:100630009000CFCF809190008F7DF9CF8091900076
:10064000877FF5CF8091A0008F778093A000C1CFE6
:100650008091A0008F7DF9CF8091A000877FF5CF9A
:10066000809120018F7780932001B3CF809120016A
:100670008F7DF9CF80912001877FF5CF4E2BB8CFAA
:10068000089590E080E00895CF93DF93EC0160E05F
:100690008E810E94B40261E08E810E94B40260E00B
:1006A0008E810E94B4028BE891E00197F1F7DF910F
:1006B000CF910895CF92DF92EF92FF920F931F9305
:1006C000CF93DF936C017C0187E0E80EF11CD0E052
:1006D000C0E0062F10E0B8010C2E02C0759567959A
:1006E0000A94E2F76170F70181917F010E94B402E0
:1006F0002196C430D10579F7C601DF91CF911F91C2
:100700000F91FF90EF90DF90CF900C944403CF9225
:10071000DF92EF92FF920F931F93CF93DF93EC0141
:10072000F62E642F8C810E94B4028D818F3F19F0C8
:1007300060E00E94B4020F2D10E08F8584FF25C079
:100740006E0187E0C80ED11CF12CE12CB8010E2CF3
:1007500002C0759567950A94E2F76170F601819180
:100760006F010E94B402FFEFEF1AFF0A88E0E8165B
:10077000F10461F7CE01DF91CF911F910F91FF90AE
:10078000EF90DF90CF900C944403B80184E075950E
:1007900067958A95E1F7CE010E945A036F2DCE012D
:1007A000DF91CF911F910F91FF90EF90DF90CF904D
:1007B0000C945A03CF93DF93623029F49091ED02A9
:1007C00098609093ED026093F1021092F20290E42F
:1007D0009093F3028093F402805C8093F502809101
:1007E000E2020E9461018091E3028F3F11F00E94BA
:1007F00061018091E4020E946101CEEDD2E09E0190
:100800002E5D32408091ED0284FD0AC084E090E0CC
:100810002196281739073CF48E810E946101EFCFA1
:1008200088E090E0F5CF8BE39DE00197F1F760E081
:100830008091E2020E94B40260E08091E4020E9492
:10084000B4028091E3028F3F19F060E00E94B4028D
:100850006091ED0264FD45C063E08EED92E00E9480
:100860005A03CBE4D6E4CE010197F1F763E08EEDB5
:1008700092E00E945A032197F1F763E08EED92E037
:100880000E945A0383E592E00197F1F762E08EED52
:1008900092E00E945A036091ED02606240E08EEDAA
:1008A00092E00E94870384E08093EE0240E06CE0D7
:1008B0008EED92E00E94870340E061E08EED92E0D1
:1008C0000E9487038BE39FE10197F1F782E0809319
:1008D000EF0240E066E08EED92E0DF91CF910C9464
:1008E0008703606240E08EED92E00E9487038BE414
:1008F00096E40197F1F76091ED02606240E08EEDC1
:1009000092E00E94870383E592E00197F1F76091FE
:10091000ED02606240E08EED92E00E948703BBCF63
:1009200041E00E94870381E090E008951F920F92BA
:100930000FB60F9211240BB60F922F933F934F9344
:100940005F936F937F938F939F93AF93BF93EF9337
:10095000FF9381E492E00E94F401FF91EF91BF9137
:10096000AF919F918F917F916F915F914F913F9147
:100970002F910F900BBE0F900FBE0F901F901895E8
:100980001F920F920FB60F9211240BB60F922F9356
:100990008F939F93EF93FF93E0915102F091520256
:1009A0008081E0915702F091580282FD1DC0908134
:1009B00080915A028F5F8F7320915B02821741F002
:1009C000E0915A02F0E0EF5BFD4F958F80935A0261
:1009D000FF91EF919F918F912F910F900BBE0F90F0
:1009E0000FBE0F901F9018958081F2CF1F920F922B
:1009F0000FB60F9211242F933F938F939F93AF9332
:100A0000BF9380913D0290913E02A0913F02B09130
:100A1000400230913C0223E0230F2D3758F5019618
:100A2000A11DB11D20933C0280933D0290933E0294
:100A3000A0933F02B0934002809138029091390216
:100A4000A0913A02B0913B020196A11DB11D809385
:100A5000380290933902A0933A02B0933B02BF91BF
:100A6000AF919F918F913F912F910F900FBE0F905B
:100A70001F90189526E8230F0296A11DB11DD2CF15
:100A8000E1E4F2E01382128288EE93E0A0E0B0E0AD
:100A900084839583A683B78384E092E091838083E7
:100AA00085EC90E09587848784EC90E09787868733
:100AB00080EC90E0918B808B81EC90E0938B828B2B
:100AC00082EC90E0958B848B86EC90E0978B868B04
:100AD000118E128E138E148EEEEDF2E013821282BE
:100AE00086E192E09183808387E084838FEF858322
:100AF00086E0868385E0878384E0808783E0818742
:100B000082E082871386148615861686178661E032
:100B100080E10C94DA03789484B5826084BD84B556
:100B2000816084BD85B5826085BD85B5816085BDE8
:100B300080916E00816080936E00109281008091A0
:100B40008100826080938100809181008160809328
:100B50008100809180008160809380008091B1004D
:100B600084608093B1008091B00081608093B00078
:100B700080919100826080939100809191008160CA
:100B8000809391008091900081608093900080918B
:100B9000A10082608093A1008091A1008160809378
:100BA000A1008091A00081608093A000809121012C
:100BB00082608093210180912101816080932101D5
:100BC0008091200181608093200180917A0084606F
:100BD00080937A0080917A00826080937A0080917D
:100BE0007A00816080937A0080917A008068809397
:100BF0007A001092C100E0915102F091520282E01D
:100C00008083E0914D02F0914E021082E0914F02FC
:100C1000F09150028FEC808310925902E0915502BE
:100C2000F091560286E08083E0915302F0915402E5
:100C3000808180618083E0915302F0915402808131
:100C400088608083E0915302F09154028081806833
:100C50008083E0915302F091540280818F7D8083E4
:100C600062E084E10E94DA0349E050E06EE172E064
:100C70008EED92E00E9480014FE050E068E272E069
:100C80008EED92E00E9480010E948302F5CFEE0F6C
:100C9000FF1F881F8BBF0790F691E02D1994F894E1
:020CA000FFCF84
:100CA2000000000016028001AD016302DE01BC01FA
:100CB200D0010000000090048001410340034C6118
:100CC20062204172717569004C61622041727175D6
:080CD20069313131313131008B
:00000001FF
